{
  "_format": "hh-sol-artifact-1",
  "contractName": "CertificateRegistry",
  "sourceName": "contracts/CertificateRegistry.sol",
  "abi": [
    {
      "inputs": [],
      "stateMutability": "nonpayable",
      "type": "constructor"
    },
    {
      "anonymous": false,
      "inputs": [
        {
          "indexed": true,
          "internalType": "bytes32",
          "name": "merkleRoot",
          "type": "bytes32"
        },
        {
          "indexed": true,
          "internalType": "address",
          "name": "issuer",
          "type": "address"
        },
        {
          "indexed": false,
          "internalType": "string",
          "name": "reason",
          "type": "string"
        },
        {
          "indexed": false,
          "internalType": "uint256",
          "name": "timestamp",
          "type": "uint256"
        }
      ],
      "name": "BatchRevoked",
      "type": "event"
    },
    {
      "anonymous": false,
      "inputs": [
        {
          "indexed": true,
          "internalType": "bytes32",
          "name": "hash",
          "type": "bytes32"
        },
        {
          "indexed": true,
          "internalType": "address",
          "name": "issuer",
          "type": "address"
        },
        {
          "indexed": false,
          "internalType": "string",
          "name": "reason",
          "type": "string"
        },
        {
          "indexed": false,
          "internalType": "uint256",
          "name": "timestamp",
          "type": "uint256"
        }
      ],
      "name": "CertificateRevoked",
      "type": "event"
    },
    {
      "anonymous": false,
      "inputs": [
        {
          "indexed": true,
          "internalType": "bytes32",
          "name": "hash",
          "type": "bytes32"
        },
        {
          "indexed": true,
          "internalType": "address",
          "name": "issuer",
          "type": "address"
        },
        {
          "indexed": false,
          "internalType": "uint256",
          "name": "timestamp",
          "type": "uint256"
        },
        {
          "indexed": false,
          "internalType": "uint256",
          "name": "blockNumber",
          "type": "uint256"
        }
      ],
      "name": "CertificateStored",
      "type": "event"
    },
    {
      "anonymous": false,
      "inputs": [
        {
          "indexed": true,
          "internalType": "uint256",
          "name": "batchId",
          "type": "uint256"
        },
        {
          "indexed": true,
          "internalType": "bytes32",
          "name": "merkleRoot",
          "type": "bytes32"
        },
        {
          "indexed": true,
          "internalType": "address",
          "name": "issuer",
          "type": "address"
        },
        {
          "indexed": false,
          "internalType": "uint256",
          "name": "certificateCount",
          "type": "uint256"
        },
        {
          "indexed": false,
          "internalType": "uint256",
          "name": "timestamp",
          "type": "uint256"
        }
      ],
      "name": "MerkleBatchStored",
      "type": "event"
    },
    {
      "inputs": [],
      "name": "batchIdCounter",
      "outputs": [
        {
          "internalType": "uint256",
          "name": "",
          "type": "uint256"
        }
      ],
      "stateMutability": "view",
      "type": "function"
    },
    {
      "inputs": [
        {
          "internalType": "bytes32",
          "name": "",
          "type": "bytes32"
        }
      ],
      "name": "certificates",
      "outputs": [
        {
          "internalType": "bytes32",
          "name": "hash",
          "type": "bytes32"
        },
        {
          "internalType": "uint256",
          "name": "timestamp",
          "type": "uint256"
        },
        {
          "internalType": "address",
          "name": "issuer",
          "type": "address"
        },
        {
          "internalType": "bool",
          "name": "isRevoked",
          "type": "bool"
        },
        {
          "internalType": "string",
          "name": "revocationReason",
          "type": "string"
        },
        {
          "internalType": "uint256",
          "name": "blockNumber",
          "type": "uint256"
        }
      ],
      "stateMutability": "view",
      "type": "function"
    },
    {
      "inputs": [
        {
          "internalType": "bytes32",
          "name": "_merkleRoot",
          "type": "bytes32"
        }
      ],
      "name": "getBatchInfo",
      "outputs": [
        {
          "internalType": "bytes32",
          "name": "merkleRoot",
          "type": "bytes32"
        },
        {
          "internalType": "string",
          "name": "metadata",
          "type": "string"
        },
        {
          "internalType": "uint256",
          "name": "certificateCount",
          "type": "uint256"
        },
        {
          "internalType": "uint256",
          "name": "timestamp",
          "type": "uint256"
        },
        {
          "internalType": "address",
          "name": "issuer",
          "type": "address"
        },
        {
          "internalType": "bool",
          "name": "isValid",
          "type": "bool"
        }
      ],
      "stateMutability": "view",
      "type": "function"
    },
    {
      "inputs": [],
      "name": "getCertificateCount",
      "outputs": [
        {
          "internalType": "uint256",
          "name": "",
          "type": "uint256"
        }
      ],
      "stateMutability": "view",
      "type": "function"
    },
    {
      "inputs": [
        {
          "internalType": "address",
          "name": "_issuer",
          "type": "address"
        }
      ],
      "name": "getIssuerStats",
      "outputs": [
        {
          "internalType": "uint256",
          "name": "totalCertificates",
          "type": "uint256"
        },
        {
          "internalType": "uint256",
          "name": "activeCertificates",
          "type": "uint256"
        },
        {
          "internalType": "uint256",
          "name": "revokedCertificates",
          "type": "uint256"
        },
        {
          "internalType": "uint256",
          "name": "totalTransactions",
          "type": "uint256"
        },
        {
          "internalType": "uint256",
          "name": "totalBatches",
          "type": "uint256"
        }
      ],
      "stateMutability": "view",
      "type": "function"
    },
    {
      "inputs": [
        {
          "internalType": "address",
          "name": "",
          "type": "address"
        }
      ],
      "name": "issuerActiveCertificates",
      "outputs": [
        {
          "internalType": "uint256",
          "name": "",
          "type": "uint256"
        }
      ],
      "stateMutability": "view",
      "type": "function"
    },
    {
      "inputs": [
        {
          "internalType": "address",
          "name": "",
          "type": "address"
        }
      ],
      "name": "issuerRevokedCertificates",
      "outputs": [
        {
          "internalType": "uint256",
          "name": "",
          "type": "uint256"
        }
      ],
      "stateMutability": "view",
      "type": "function"
    },
    {
      "inputs": [
        {
          "internalType": "address",
          "name": "",
          "type": "address"
        }
      ],
      "name": "issuerTotalBatches",
      "outputs": [
        {
          "internalType": "uint256",
          "name": "",
          "type": "uint256"
        }
      ],
      "stateMutability": "view",
      "type": "function"
    },
    {
      "inputs": [
        {
          "internalType": "address",
          "name": "",
          "type": "address"
        }
      ],
      "name": "issuerTotalCertificates",
      "outputs": [
        {
          "internalType": "uint256",
          "name": "",
          "type": "uint256"
        }
      ],
      "stateMutability": "view",
      "type": "function"
    },
    {
      "inputs": [
        {
          "internalType": "address",
          "name": "",
          "type": "address"
        }
      ],
      "name": "issuerTotalTransactions",
      "outputs": [
        {
          "internalType": "uint256",
          "name": "",
          "type": "uint256"
        }
      ],
      "stateMutability": "view",
      "type": "function"
    },
    {
      "inputs": [
        {
          "internalType": "bytes32",
          "name": "",
          "type": "bytes32"
        }
      ],
      "name": "merkleBatchExists",
      "outputs": [
        {
          "internalType": "bool",
          "name": "",
          "type": "bool"
        }
      ],
      "stateMutability": "view",
      "type": "function"
    },
    {
      "inputs": [
        {
          "internalType": "bytes32",
          "name": "",
          "type": "bytes32"
        }
      ],
      "name": "merkleBatches",
      "outputs": [
        {
          "internalType": "bytes32",
          "name": "merkleRoot",
          "type": "bytes32"
        },
        {
          "internalType": "string",
          "name": "metadata",
          "type": "string"
        },
        {
          "internalType": "uint256",
          "name": "certificateCount",
          "type": "uint256"
        },
        {
          "internalType": "uint256",
          "name": "timestamp",
          "type": "uint256"
        },
        {
          "internalType": "address",
          "name": "issuer",
          "type": "address"
        },
        {
          "internalType": "bool",
          "name": "isValid",
          "type": "bool"
        }
      ],
      "stateMutability": "view",
      "type": "function"
    },
    {
      "inputs": [
        {
          "internalType": "bytes32",
          "name": "_hash",
          "type": "bytes32"
        },
        {
          "internalType": "string",
          "name": "_reason",
          "type": "string"
        }
      ],
      "name": "revokeCertificate",
      "outputs": [],
      "stateMutability": "nonpayable",
      "type": "function"
    },
    {
      "inputs": [
        {
          "internalType": "bytes32",
          "name": "_merkleRoot",
          "type": "bytes32"
        },
        {
          "internalType": "string",
          "name": "_reason",
          "type": "string"
        }
      ],
      "name": "revokeMerkleBatch",
      "outputs": [],
      "stateMutability": "nonpayable",
      "type": "function"
    },
    {
      "inputs": [
        {
          "internalType": "bytes32",
          "name": "_hash",
          "type": "bytes32"
        },
        {
          "internalType": "string",
          "name": "_metadata",
          "type": "string"
        }
      ],
      "name": "storeCertificate",
      "outputs": [],
      "stateMutability": "nonpayable",
      "type": "function"
    },
    {
      "inputs": [
        {
          "internalType": "bytes32",
          "name": "_merkleRoot",
          "type": "bytes32"
        },
        {
          "internalType": "string",
          "name": "_metadata",
          "type": "string"
        },
        {
          "internalType": "uint256",
          "name": "_certificateCount",
          "type": "uint256"
        }
      ],
      "name": "storeMerkleBatch",
      "outputs": [
        {
          "internalType": "uint256",
          "name": "batchId",
          "type": "uint256"
        }
      ],
      "stateMutability": "nonpayable",
      "type": "function"
    },
    {
      "inputs": [
        {
          "internalType": "bytes32",
          "name": "_hash",
          "type": "bytes32"
        }
      ],
      "name": "verifyCertificate",
      "outputs": [
        {
          "internalType": "bool",
          "name": "exists",
          "type": "bool"
        },
        {
          "internalType": "bool",
          "name": "isRevoked",
          "type": "bool"
        },
        {
          "internalType": "address",
          "name": "issuer",
          "type": "address"
        },
        {
          "internalType": "uint256",
          "name": "timestamp",
          "type": "uint256"
        },
        {
          "internalType": "string",
          "name": "revocationReason",
          "type": "string"
        }
      ],
      "stateMutability": "view",
      "type": "function"
    },
    {
      "inputs": [
        {
          "internalType": "bytes32",
          "name": "_merkleRoot",
          "type": "bytes32"
        }
      ],
      "name": "verifyMerkleBatch",
      "outputs": [
        {
          "internalType": "bool",
          "name": "exists",
          "type": "bool"
        },
        {
          "internalType": "bool",
          "name": "isValid",
          "type": "bool"
        },
        {
          "internalType": "address",
          "name": "issuer",
          "type": "address"
        },
        {
          "internalType": "uint256",
          "name": "certificateCount",
          "type": "uint256"
        },
        {
          "internalType": "uint256",
          "name": "timestamp",
          "type": "uint256"
        },
        {
          "internalType": "string",
          "name": "metadata",
          "type": "string"
        }
      ],
      "stateMutability": "view",
      "type": "function"
    },
    {
      "inputs": [
        {
          "internalType": "bytes32",
          "name": "_leaf",
          "type": "bytes32"
        },
        {
          "internalType": "bytes32[]",
          "name": "_proof",
          "type": "bytes32[]"
        },
        {
          "internalType": "bytes32",
          "name": "_merkleRoot",
          "type": "bytes32"
        }
      ],
      "name": "verifyMerkleProof",
      "outputs": [
        {
          "internalType": "bool",
          "name": "",
          "type": "bool"
        }
      ],
      "stateMutability": "view",
      "type": "function"
    }
  ],
  "bytecode": "0x608060405234801561001057600080fd5b506000600855611a75806100256000396000f3fe608060405234801561001057600080fd5b50600436106101215760003560e01c80635bf4adfb116100ad5780638809f727116100715780638809f727146102e157806393068d44146102f6578063ab598c9a14610309578063ab6edcf114610329578063e09bf5521461034957600080fd5b80635bf4adfb14610269578063742f06881461027c578063753207c7146102a157806378bede29146102b4578063850c1768146102bd57600080fd5b806335f0dced116100f457806335f0dced146101b15780633d5732f5146101d45780633efbf503146101f457806340ab7a541461022f5780635a73c6941461025457600080fd5b80631618a7fd1461012657806322a561d81461014c5780632fa9d7db1461016c57806333c645611461018c575b600080fd5b610139610134366004611527565b61036c565b6040519081526020015b60405180910390f35b61013961015a366004611577565b60066020526000908152604090205481565b61013961017a366004611577565b60056020526000908152604090205481565b61019f61019a3660046115a7565b61060e565b60405161014396959493929190611606565b6101c46101bf36600461164f565b6106db565b6040519015158152602001610143565b6101396101e2366004611577565b60046020526000908152604090205481565b610207610202366004611577565b61093d565b604080519586526020860194909452928401919091526060830152608082015260a001610143565b61024261023d3660046115a7565b610989565b60405161014396959493929190611709565b610267610262366004611752565b610b14565b005b610267610277366004611752565b610d5e565b61028f61028a3660046115a7565b610f33565b60405161014396959493929190611799565b61019f6102af3660046115a7565b611002565b61013960085481565b6102d06102cb3660046115a7565b611164565b6040516101439594939291906117e1565b33600090815260036020526040902054610139565b610267610304366004611752565b6112b7565b610139610317366004611577565b60036020526000908152604090205481565b610139610337366004611577565b60076020526000908152604090205481565b6101c46103573660046115a7565b60026020526000908152604090205460ff1681565b6000836103b65760405162461bcd60e51b8152602060048201526013602482015272125b9d985b1a59081b595c9adb19481c9bdbdd606a1b60448201526064015b60405180910390fd5b600082116104105760405162461bcd60e51b815260206004820152602160248201527f4174206c65617374206f6e6520636572746966696361746520726571756972656044820152601960fa1b60648201526084016103ad565b60008481526002602052604090205460ff16156104665760405162461bcd60e51b8152602060048201526014602482015273426174636820616c72656164792065786973747360601b60448201526064016103ad565b6008805490600061047683611839565b90915550506008546040805160c0810182528681526020808201878152828401879052426060840152336080840152600160a0840181905260008a81529281905293909120825181559051939450909290918201906104d590826118db565b50604082810151600280840191909155606084015160038085019190915560808501516004909401805460a0909601511515600160a01b026001600160a81b03199096166001600160a01b03909516949094179490941790925560008781526020928352818120805460ff19166001179055338152929091528120805484929061056090849061199b565b9091555050336000908152600460205260408120805484929061058490849061199b565b90915550503360009081526006602052604081208054916105a483611839565b90915550503360009081526007602052604081208054916105c483611839565b9091555050604080518381524260208201523391869184917f42891709037bca0cf0d603331df44ba53fdc0cb03b9ce8882baf2391e16a153f910160405180910390a49392505050565b60016020819052600091825260409091208054918101805461062f90611852565b80601f016020809104026020016040519081016040528092919081815260200182805461065b90611852565b80156106a85780601f1061067d576101008083540402835291602001916106a8565b820191906000526020600020905b81548152906001019060200180831161068b57829003601f168201915b5050505060028301546003840154600490940154929390929091506001600160a01b03811690600160a01b900460ff1686565b60008181526002602052604081205460ff166107095760405162461bcd60e51b81526004016103ad906119b4565b600082815260016020526040902060040154600160a01b900460ff166107615760405162461bcd60e51b815260206004820152600d60248201526c10985d18da081c995d9bdad959609a1b60448201526064016103ad565b6000828152600160208181526040808420815160c0810190925280548252928301805491939284019161079390611852565b80601f01602080910402602001604051908101604052809291908181526020018280546107bf90611852565b801561080c5780601f106107e15761010080835404028352916020019161080c565b820191906000526020600020905b8154815290600101906020018083116107ef57829003601f168201915b505050918352505060028201546020820152600382015460408201526004909101546001600160a01b0381166060830152600160a01b900460ff16151560809091015290508460005b85518110156109315781868281518110610871576108716119dd565b602002602001015110156108d157858181518110610891576108916119dd565b6020026020010151826040516020016108b4929190918252602082015260400190565b60405160208183030381529060405280519060200120915061091f565b818682815181106108e4576108e46119dd565b6020026020010151604051602001610906929190918252602082015260400190565b6040516020818303038152906040528051906020012091505b8061092981611839565b915050610855565b50905114949350505050565b6001600160a01b03811660009081526003602090815260408083205460048352818420546005845282852054600685528386205460079095529290942054909392905b91939590929450565b600081815260026020526040812054819081908190819060609060ff166109ce5750506040805160208101909152600080825294508493508392508291508190610b0b565b6000878152600160208181526040808420815160c08101909252805482529283018054919392840191610a0090611852565b80601f0160208091040260200160405190810160405280929190818152602001828054610a2c90611852565b8015610a795780601f10610a4e57610100808354040283529160200191610a79565b820191906000526020600020905b815481529060010190602001808311610a5c57829003601f168201915b5050505050815260200160028201548152602001600382015481526020016004820160009054906101000a90046001600160a01b03166001600160a01b03166001600160a01b031681526020016004820160149054906101000a900460ff161515151581525050905060018160a001518260800151836040015184606001518560200151965096509650965096509650505b91939550919395565b81610b505760405162461bcd60e51b815260206004820152600c60248201526b092dcecc2d8d2c840d0c2e6d60a31b60448201526064016103ad565b600082815260208190526040902060020154600160a01b900460ff1615610bb95760405162461bcd60e51b815260206004820152601b60248201527f436572746966696361746520616c7265616479207265766f6b6564000000000060448201526064016103ad565b60008281526020819052604090205415610c155760405162461bcd60e51b815260206004820152601a60248201527f436572746966696361746520616c72656164792065786973747300000000000060448201526064016103ad565b6040805160c0810182528381524260208083019182523383850190815260006060850181815286518085018852828152608087019081524360a08801528983529382905295902084518155925160018401555160028301805495511515600160a01b026001600160a81b03199096166001600160a01b0392909216919091179490941790935591519091906003820190610caf90826118db565b5060a09190910151600490910155336000908152600360205260408120805491610cd883611839565b9091555050336000908152600460205260408120805491610cf883611839565b9091555050336000908152600660205260408120805491610d1883611839565b909155505060408051428152436020820152339184917f21b7b16d38779d5a1404c9630a1654d0d8af6c9d01d01c2c48211ac953b1d71b91015b60405180910390a35050565b600082815260208190526040902054610db15760405162461bcd60e51b815260206004820152601560248201527410d95c9d1a599a58d85d19481b9bdd08199bdd5b99605a1b60448201526064016103ad565b6000828152602081905260409020600201546001600160a01b03163314610e0b5760405162461bcd60e51b815260206004820152600e60248201526d139bdd08185d5d1a1bdc9a5e995960921b60448201526064016103ad565b600082815260208190526040902060020154600160a01b900460ff1615610e665760405162461bcd60e51b815260206004820152600f60248201526e105b1c9958591e481c995d9bdad959608a1b60448201526064016103ad565b600082815260208190526040902060028101805460ff60a01b1916600160a01b179055600301610e9682826118db565b50336000908152600460205260408120805491610eb2836119f3565b9091555050336000908152600560205260408120805491610ed283611839565b9091555050336000908152600660205260408120805491610ef283611839565b9190505550336001600160a01b0316827fba6b1f45b9140a00c5c5541e536fa1e9aff39c507267e24a5dfba0074f15aaca8342604051610d52929190611a0a565b6000602081905290815260409020805460018201546002830154600384018054939492936001600160a01b03831693600160a01b90930460ff16929190610f7990611852565b80601f0160208091040260200160405190810160405280929190818152602001828054610fa590611852565b8015610ff25780601f10610fc757610100808354040283529160200191610ff2565b820191906000526020600020905b815481529060010190602001808311610fd557829003601f168201915b5050505050908060040154905086565b600081815260026020526040812054606090829081908190819060ff1661103b5760405162461bcd60e51b81526004016103ad906119b4565b6000878152600160208181526040808420815160c0810190925280548252928301805491939284019161106d90611852565b80601f016020809104026020016040519081016040528092919081815260200182805461109990611852565b80156110e65780601f106110bb576101008083540402835291602001916110e6565b820191906000526020600020905b8154815290600101906020018083116110c957829003601f168201915b5050509183525050600282015460208083019190915260038301546040808401919091526004909301546001600160a01b038116606080850191909152600160a01b90910460ff16151560809384015284519185015193850151908501519285015160a090950151919d939c509a5090985091965090945092505050565b600081815260208181526040808320815160c0810183528154815260018201549381019390935260028101546001600160a01b03811692840192909252600160a01b90910460ff1615156060808401919091526003820180548594859485949385936080840191906111d590611852565b80601f016020809104026020016040519081016040528092919081815260200182805461120190611852565b801561124e5780601f106112235761010080835404028352916020019161124e565b820191906000526020600020905b81548152906001019060200180831161123157829003601f168201915b505050918352505060049190910154602090910152805190915061128e575050604080516020810190915260008082529450849350839250829150610980565b60608101516040820151602083015160809093015160019a929950909750919550909350915050565b60008281526002602052604090205460ff166112e55760405162461bcd60e51b81526004016103ad906119b4565b6000828152600160205260409020600401546001600160a01b0316331461133f5760405162461bcd60e51b815260206004820152600e60248201526d139bdd08185d5d1a1bdc9a5e995960921b60448201526064016103ad565b600082815260016020526040902060040154600160a01b900460ff1661139f5760405162461bcd60e51b815260206004820152601560248201527410985d18da08185b1c9958591e481c995d9bdad959605a1b60448201526064016103ad565b60008281526001602090815260408083206004808201805460ff60a01b19169055600290910154338552925282208054919283926113de908490611a2c565b9091555050336000908152600560205260408120805483929061140290849061199b565b909155505033600090815260066020526040812080549161142283611839565b9190505550336001600160a01b0316837fcefd04eb30fc67915c86ed18e3aff86efbf8f4b10d3471ad65550aa00481eec78442604051611463929190611a0a565b60405180910390a3505050565b634e487b7160e01b600052604160045260246000fd5b604051601f8201601f1916810167ffffffffffffffff811182821017156114af576114af611470565b604052919050565b600082601f8301126114c857600080fd5b813567ffffffffffffffff8111156114e2576114e2611470565b6114f5601f8201601f1916602001611486565b81815284602083860101111561150a57600080fd5b816020850160208301376000918101602001919091529392505050565b60008060006060848603121561153c57600080fd5b83359250602084013567ffffffffffffffff81111561155a57600080fd5b611566868287016114b7565b925050604084013590509250925092565b60006020828403121561158957600080fd5b81356001600160a01b03811681146115a057600080fd5b9392505050565b6000602082840312156115b957600080fd5b5035919050565b6000815180845260005b818110156115e6576020818501810151868301820152016115ca565b506000602082860101526020601f19601f83011685010191505092915050565b86815260c06020820152600061161f60c08301886115c0565b60408301969096525060608101939093526001600160a01b03919091166080830152151560a09091015292915050565b60008060006060848603121561166457600080fd5b8335925060208085013567ffffffffffffffff8082111561168457600080fd5b818701915087601f83011261169857600080fd5b8135818111156116aa576116aa611470565b8060051b91506116bb848301611486565b818152918301840191848101908a8411156116d557600080fd5b938501935b838510156116f3578435825293850193908501906116da565b979a979950505050604095909501359450505050565b8615158152851515602082015260018060a01b038516604082015283606082015282608082015260c060a0820152600061174660c08301846115c0565b98975050505050505050565b6000806040838503121561176557600080fd5b82359150602083013567ffffffffffffffff81111561178357600080fd5b61178f858286016114b7565b9150509250929050565b86815285602082015260018060a01b0385166040820152831515606082015260c0608082015260006117ce60c08301856115c0565b90508260a0830152979650505050505050565b8515158152841515602082015260018060a01b038416604082015282606082015260a06080820152600061181860a08301846115c0565b979650505050505050565b634e487b7160e01b600052601160045260246000fd5b60006001820161184b5761184b611823565b5060010190565b600181811c9082168061186657607f821691505b60208210810361188657634e487b7160e01b600052602260045260246000fd5b50919050565b601f8211156118d657600081815260208120601f850160051c810160208610156118b35750805b601f850160051c820191505b818110156118d2578281556001016118bf565b5050505b505050565b815167ffffffffffffffff8111156118f5576118f5611470565b611909816119038454611852565b8461188c565b602080601f83116001811461193e57600084156119265750858301515b600019600386901b1c1916600185901b1785556118d2565b600085815260208120601f198616915b8281101561196d5788860151825594840194600190910190840161194e565b508582101561198b5787850151600019600388901b60f8161c191681555b5050505050600190811b01905550565b808201808211156119ae576119ae611823565b92915050565b6020808252600f908201526e10985d18da081b9bdd08199bdd5b99608a1b604082015260600190565b634e487b7160e01b600052603260045260246000fd5b600081611a0257611a02611823565b506000190190565b604081526000611a1d60408301856115c0565b90508260208301529392505050565b818103818111156119ae576119ae61182356fea2646970667358221220d4d6d0c0ab1c9eb97dd7cbad442ce956e0c2c0b94d8391a0603ed45834b1467d64736f6c63430008130033",
  "linkReferences": {},
  "deployedLinkReferences": {}
}