{
  "_format": "hh-sol-artifact-1",
  "contractName": "CertificateRegistry",
  "sourceName": "contracts/CertificateRegistry.sol",
  "abi": [
    {
      "inputs": [],
      "stateMutability": "nonpayable",
      "type": "constructor"
    },
    {
      "anonymous": false,
      "inputs": [
        {
          "indexed": true,
          "internalType": "bytes32",
          "name": "hash",
          "type": "bytes32"
        },
        {
          "indexed": true,
          "internalType": "address",
          "name": "issuer",
          "type": "address"
        },
        {
          "indexed": true,
          "internalType": "uint256",
          "name": "batchId",
          "type": "uint256"
        },
        {
          "indexed": false,
          "internalType": "uint256",
          "name": "timestamp",
          "type": "uint256"
        }
      ],
      "name": "BatchCertificateStored",
      "type": "event"
    },
    {
      "anonymous": false,
      "inputs": [
        {
          "indexed": true,
          "internalType": "uint256",
          "name": "batchId",
          "type": "uint256"
        },
        {
          "indexed": true,
          "internalType": "address",
          "name": "issuer",
          "type": "address"
        },
        {
          "indexed": false,
          "internalType": "string",
          "name": "reason",
          "type": "string"
        },
        {
          "indexed": false,
          "internalType": "uint256",
          "name": "timestamp",
          "type": "uint256"
        }
      ],
      "name": "BatchRevoked",
      "type": "event"
    },
    {
      "anonymous": false,
      "inputs": [
        {
          "indexed": true,
          "internalType": "bytes32",
          "name": "hash",
          "type": "bytes32"
        },
        {
          "indexed": true,
          "internalType": "address",
          "name": "issuer",
          "type": "address"
        },
        {
          "indexed": false,
          "internalType": "string",
          "name": "reason",
          "type": "string"
        },
        {
          "indexed": false,
          "internalType": "uint256",
          "name": "timestamp",
          "type": "uint256"
        }
      ],
      "name": "CertificateRevoked",
      "type": "event"
    },
    {
      "anonymous": false,
      "inputs": [
        {
          "indexed": true,
          "internalType": "bytes32",
          "name": "hash",
          "type": "bytes32"
        },
        {
          "indexed": true,
          "internalType": "address",
          "name": "issuer",
          "type": "address"
        },
        {
          "indexed": false,
          "internalType": "uint256",
          "name": "timestamp",
          "type": "uint256"
        },
        {
          "indexed": false,
          "internalType": "uint256",
          "name": "blockNumber",
          "type": "uint256"
        }
      ],
      "name": "CertificateStored",
      "type": "event"
    },
    {
      "anonymous": false,
      "inputs": [
        {
          "indexed": true,
          "internalType": "uint256",
          "name": "batchId",
          "type": "uint256"
        },
        {
          "indexed": false,
          "internalType": "bytes32",
          "name": "merkleRoot",
          "type": "bytes32"
        },
        {
          "indexed": true,
          "internalType": "address",
          "name": "issuer",
          "type": "address"
        },
        {
          "indexed": false,
          "internalType": "uint256",
          "name": "certificateCount",
          "type": "uint256"
        },
        {
          "indexed": false,
          "internalType": "uint256",
          "name": "timestamp",
          "type": "uint256"
        }
      ],
      "name": "MerkleBatchStored",
      "type": "event"
    },
    {
      "inputs": [
        {
          "internalType": "bytes32",
          "name": "",
          "type": "bytes32"
        }
      ],
      "name": "batchCertificates",
      "outputs": [
        {
          "internalType": "bytes32",
          "name": "hash",
          "type": "bytes32"
        },
        {
          "internalType": "uint256",
          "name": "timestamp",
          "type": "uint256"
        },
        {
          "internalType": "address",
          "name": "issuer",
          "type": "address"
        },
        {
          "internalType": "bool",
          "name": "isRevoked",
          "type": "bool"
        },
        {
          "internalType": "uint256",
          "name": "blockNumber",
          "type": "uint256"
        },
        {
          "internalType": "uint256",
          "name": "batchId",
          "type": "uint256"
        }
      ],
      "stateMutability": "view",
      "type": "function"
    },
    {
      "inputs": [
        {
          "internalType": "bytes32",
          "name": "",
          "type": "bytes32"
        }
      ],
      "name": "certificates",
      "outputs": [
        {
          "internalType": "bytes32",
          "name": "hash",
          "type": "bytes32"
        },
        {
          "internalType": "uint256",
          "name": "timestamp",
          "type": "uint256"
        },
        {
          "internalType": "address",
          "name": "issuer",
          "type": "address"
        },
        {
          "internalType": "bool",
          "name": "isRevoked",
          "type": "bool"
        },
        {
          "internalType": "string",
          "name": "revocationReason",
          "type": "string"
        },
        {
          "internalType": "uint256",
          "name": "blockNumber",
          "type": "uint256"
        }
      ],
      "stateMutability": "view",
      "type": "function"
    },
    {
      "inputs": [
        {
          "internalType": "address",
          "name": "_issuer",
          "type": "address"
        }
      ],
      "name": "getIssuerStats",
      "outputs": [
        {
          "internalType": "uint256",
          "name": "totalCertificates",
          "type": "uint256"
        },
        {
          "internalType": "uint256",
          "name": "activeCertificates",
          "type": "uint256"
        },
        {
          "internalType": "uint256",
          "name": "revokedCertificates",
          "type": "uint256"
        },
        {
          "internalType": "uint256",
          "name": "totalTransactions",
          "type": "uint256"
        }
      ],
      "stateMutability": "view",
      "type": "function"
    },
    {
      "inputs": [
        {
          "internalType": "address",
          "name": "",
          "type": "address"
        }
      ],
      "name": "issuerActiveCertificates",
      "outputs": [
        {
          "internalType": "uint256",
          "name": "",
          "type": "uint256"
        }
      ],
      "stateMutability": "view",
      "type": "function"
    },
    {
      "inputs": [
        {
          "internalType": "address",
          "name": "",
          "type": "address"
        }
      ],
      "name": "issuerRevokedCertificates",
      "outputs": [
        {
          "internalType": "uint256",
          "name": "",
          "type": "uint256"
        }
      ],
      "stateMutability": "view",
      "type": "function"
    },
    {
      "inputs": [
        {
          "internalType": "address",
          "name": "",
          "type": "address"
        }
      ],
      "name": "issuerTotalCertificates",
      "outputs": [
        {
          "internalType": "uint256",
          "name": "",
          "type": "uint256"
        }
      ],
      "stateMutability": "view",
      "type": "function"
    },
    {
      "inputs": [
        {
          "internalType": "address",
          "name": "",
          "type": "address"
        }
      ],
      "name": "issuerTotalTransactions",
      "outputs": [
        {
          "internalType": "uint256",
          "name": "",
          "type": "uint256"
        }
      ],
      "stateMutability": "view",
      "type": "function"
    },
    {
      "inputs": [
        {
          "internalType": "uint256",
          "name": "",
          "type": "uint256"
        }
      ],
      "name": "merkleBatches",
      "outputs": [
        {
          "internalType": "bytes32",
          "name": "merkleRoot",
          "type": "bytes32"
        },
        {
          "internalType": "uint256",
          "name": "timestamp",
          "type": "uint256"
        },
        {
          "internalType": "address",
          "name": "issuer",
          "type": "address"
        },
        {
          "internalType": "bool",
          "name": "isValid",
          "type": "bool"
        },
        {
          "internalType": "uint256",
          "name": "certificateCount",
          "type": "uint256"
        }
      ],
      "stateMutability": "view",
      "type": "function"
    },
    {
      "inputs": [
        {
          "internalType": "bytes32",
          "name": "_hash",
          "type": "bytes32"
        },
        {
          "internalType": "string",
          "name": "_reason",
          "type": "string"
        }
      ],
      "name": "revokeBatchCertificate",
      "outputs": [],
      "stateMutability": "nonpayable",
      "type": "function"
    },
    {
      "inputs": [
        {
          "internalType": "bytes32",
          "name": "_hash",
          "type": "bytes32"
        },
        {
          "internalType": "string",
          "name": "_reason",
          "type": "string"
        }
      ],
      "name": "revokeCertificate",
      "outputs": [],
      "stateMutability": "nonpayable",
      "type": "function"
    },
    {
      "inputs": [
        {
          "internalType": "uint256",
          "name": "_batchId",
          "type": "uint256"
        },
        {
          "internalType": "string",
          "name": "_reason",
          "type": "string"
        }
      ],
      "name": "revokeMerkleBatch",
      "outputs": [],
      "stateMutability": "nonpayable",
      "type": "function"
    },
    {
      "inputs": [
        {
          "internalType": "bytes32",
          "name": "_hash",
          "type": "bytes32"
        },
        {
          "internalType": "uint256",
          "name": "_batchId",
          "type": "uint256"
        },
        {
          "internalType": "string",
          "name": "_metadata",
          "type": "string"
        }
      ],
      "name": "storeBatchCertificate",
      "outputs": [],
      "stateMutability": "nonpayable",
      "type": "function"
    },
    {
      "inputs": [
        {
          "internalType": "bytes32",
          "name": "_hash",
          "type": "bytes32"
        },
        {
          "internalType": "string",
          "name": "_metadata",
          "type": "string"
        }
      ],
      "name": "storeCertificate",
      "outputs": [],
      "stateMutability": "nonpayable",
      "type": "function"
    },
    {
      "inputs": [
        {
          "internalType": "uint256",
          "name": "_batchId",
          "type": "uint256"
        },
        {
          "internalType": "bytes32",
          "name": "_merkleRoot",
          "type": "bytes32"
        },
        {
          "internalType": "bytes32[]",
          "name": "_leaves",
          "type": "bytes32[]"
        },
        {
          "internalType": "uint256",
          "name": "_certificateCount",
          "type": "uint256"
        }
      ],
      "name": "storeMerkleBatch",
      "outputs": [],
      "stateMutability": "nonpayable",
      "type": "function"
    },
    {
      "inputs": [
        {
          "internalType": "bytes32",
          "name": "_hash",
          "type": "bytes32"
        }
      ],
      "name": "verifyCertificate",
      "outputs": [
        {
          "internalType": "bool",
          "name": "exists",
          "type": "bool"
        },
        {
          "internalType": "bool",
          "name": "isRevoked",
          "type": "bool"
        },
        {
          "internalType": "address",
          "name": "issuer",
          "type": "address"
        },
        {
          "internalType": "uint256",
          "name": "timestamp",
          "type": "uint256"
        },
        {
          "internalType": "string",
          "name": "revocationReason",
          "type": "string"
        }
      ],
      "stateMutability": "view",
      "type": "function"
    },
    {
      "inputs": [
        {
          "internalType": "bytes32",
          "name": "_leaf",
          "type": "bytes32"
        },
        {
          "internalType": "bytes32[]",
          "name": "_proof",
          "type": "bytes32[]"
        },
        {
          "internalType": "uint256",
          "name": "_batchId",
          "type": "uint256"
        }
      ],
      "name": "verifyMerkleProof",
      "outputs": [
        {
          "internalType": "bool",
          "name": "",
          "type": "bool"
        }
      ],
      "stateMutability": "view",
      "type": "function"
    }
  ],
  "bytecode": "0x608060405234801561001057600080fd5b506118f3806100206000396000f3fe608060405234801561001057600080fd5b50600436106101005760003560e01c8063742f068811610097578063ad54472711610066578063ad54472714610337578063b2414f181461034a578063c08507d7146103cd578063dfa28e37146103e057600080fd5b8063742f068814610240578063850c176814610265578063aa71030214610289578063ab598c9a1461031757600080fd5b80633d5732f5116100d35780633d5732f5146101905780633efbf503146101b05780635a73c6941461021a5780635bf4adfb1461022d57600080fd5b806322a561d81461010557806326affb00146101385780632fa9d7db1461015b5780633ba4e3171461017b575b600080fd5b61012561011336600461131e565b60066020526000908152604090205481565b6040519081526020015b60405180910390f35b61014b610146366004611415565b6103f3565b604051901515815260200161012f565b61012561016936600461131e565b60056020526000908152604090205481565b61018e6101893660046114d5565b61053b565b005b61012561019e36600461131e565b60046020526000908152604090205481565b6101fa6101be36600461131e565b6001600160a01b031660009081526003602090815260408083205460048352818420546005845282852054600690945291909320549293909290565b60408051948552602085019390935291830152606082015260800161012f565b61018e610228366004611525565b610774565b61018e61023b366004611525565b6109be565b61025361024e36600461156c565b610b72565b60405161012f969594939291906115cb565b61027861027336600461156c565b610c41565b60405161012f959493929190611613565b6102da61029736600461156c565b60016020819052600091825260409091208054918101546002820154600383015460049093015491926001600160a01b03821692600160a01b90920460ff169186565b6040805196875260208701959095526001600160a01b039093169385019390935215156060840152608083019190915260a082015260c00161012f565b61012561032536600461131e565b60036020526000908152604090205481565b61018e610345366004611525565b610e39565b61039761035836600461156c565b600260208190526000918252604090912080546001820154928201546003909201549092916001600160a01b03811691600160a01b90910460ff169085565b6040805195865260208601949094526001600160a01b03909216928401929092529015156060830152608082015260a00161012f565b61018e6103db36600461164a565b610fa5565b61018e6103ee366004611525565b61119c565b6000818152600260208190526040822090810154600160a01b900460ff166104525760405162461bcd60e51b815260206004820152600d60248201526c092dcecc2d8d2c840c4c2e8c6d609b1b60448201526064015b60405180910390fd5b8460005b855181101561052f5781868281518110610472576104726116a2565b6020026020010151106104cf5781868281518110610492576104926116a2565b60200260200101516040516020016104b4929190918252602082015260400190565b6040516020818303038152906040528051906020012061051b565b8581815181106104e1576104e16116a2565b602002602001015182604051602001610504929190918252602082015260400190565b604051602081830303815290604052805190602001205b915080610527816116ce565b915050610456565b50905414949350505050565b826105775760405162461bcd60e51b815260206004820152600c60248201526b092dcecc2d8d2c840d0c2e6d60a31b6044820152606401610449565b600083815260016020526040902060020154600160a01b900460ff16156105e05760405162461bcd60e51b815260206004820152601b60248201527f436572746966696361746520616c7265616479207265766f6b656400000000006044820152606401610449565b6000838152600160205260409020541561063c5760405162461bcd60e51b815260206004820152601a60248201527f436572746966696361746520616c7265616479206578697374730000000000006044820152606401610449565b6040805160c08101825284815242602080830191825233838501818152600060608601818152436080880190815260a088018b81528c845260018088528a852099518a55975197890197909755925160028801805492511515600160a01b026001600160a81b03199093166001600160a01b039290921691909117919091179055905160038087019190915593516004909501949094558352529081208054916106e5836116ce565b9091555050336000908152600460205260408120805491610705836116ce565b9091555050336000908152600660205260408120805491610725836116ce565b919050555081336001600160a01b0316847f3ba7c8cdff52595aeb42e7195fdf12f2a04bceca23ec0217b0255148afd5f3224260405161076791815260200190565b60405180910390a4505050565b816107b05760405162461bcd60e51b815260206004820152600c60248201526b092dcecc2d8d2c840d0c2e6d60a31b6044820152606401610449565b600082815260208190526040902060020154600160a01b900460ff16156108195760405162461bcd60e51b815260206004820152601b60248201527f436572746966696361746520616c7265616479207265766f6b656400000000006044820152606401610449565b600082815260208190526040902054156108755760405162461bcd60e51b815260206004820152601a60248201527f436572746966696361746520616c7265616479206578697374730000000000006044820152606401610449565b6040805160c0810182528381524260208083019182523383850190815260006060850181815286518085018852828152608087019081524360a08801528983529382905295902084518155925160018401555160028301805495511515600160a01b026001600160a81b03199096166001600160a01b039290921691909117949094179093559151909190600382019061090f9082611770565b5060a09190910151600490910155336000908152600360205260408120805491610938836116ce565b9091555050336000908152600460205260408120805491610958836116ce565b9091555050336000908152600660205260408120805491610978836116ce565b909155505060408051428152436020820152339184917f21b7b16d38779d5a1404c9630a1654d0d8af6c9d01d01c2c48211ac953b1d71b91015b60405180910390a35050565b600082815260208190526040902054610a115760405162461bcd60e51b815260206004820152601560248201527410d95c9d1a599a58d85d19481b9bdd08199bdd5b99605a1b6044820152606401610449565b6000828152602081905260409020600201546001600160a01b03163314610a4a5760405162461bcd60e51b815260040161044990611830565b600082815260208190526040902060020154600160a01b900460ff1615610aa55760405162461bcd60e51b815260206004820152600f60248201526e105b1c9958591e481c995d9bdad959608a1b6044820152606401610449565b600082815260208190526040902060028101805460ff60a01b1916600160a01b179055600301610ad58282611770565b50336000908152600460205260408120805491610af183611858565b9091555050336000908152600560205260408120805491610b11836116ce565b9091555050336000908152600660205260408120805491610b31836116ce565b9190505550336001600160a01b0316827fba6b1f45b9140a00c5c5541e536fa1e9aff39c507267e24a5dfba0074f15aaca83426040516109b292919061186f565b6000602081905290815260409020805460018201546002830154600384018054939492936001600160a01b03831693600160a01b90930460ff16929190610bb8906116e7565b80601f0160208091040260200160405190810160405280929190818152602001828054610be4906116e7565b8015610c315780601f10610c0657610100808354040283529160200191610c31565b820191906000526020600020905b815481529060010190602001808311610c1457829003601f168201915b5050505050908060040154905086565b600081815260208181526040808320815160c0810183528154815260018201549381019390935260028101546001600160a01b03811692840192909252600160a01b90910460ff161515606080840191909152600382018054859485948594938593608084019190610cb2906116e7565b80601f0160208091040260200160405190810160405280929190818152602001828054610cde906116e7565b8015610d2b5780601f10610d0057610100808354040283529160200191610d2b565b820191906000526020600020905b815481529060010190602001808311610d0e57829003601f168201915b5050509183525050600491909101546020909101528051909150610e0e57600087815260016020818152604092839020835160c0810185528154808252938201549281019290925260028101546001600160a01b03811694830194909452600160a01b90930460ff16151560608201526003830154608082015260049092015460a083015215610de757600181606001518260400151836020015160405180602001604052806000815250965096509650965096505050610e30565b60008060008060405180602001604052806000815250965096509650965096505050610e30565b6001816060015182604001518360200151846080015195509550955095509550505b91939590929450565b60008281526002602081905260409091200154600160a01b900460ff16610e945760405162461bcd60e51b815260206004820152600f60248201526e10985d18da081b9bdd08199bdd5b99608a1b6044820152606401610449565b600082815260026020819052604090912001546001600160a01b03163314610ece5760405162461bcd60e51b815260040161044990611830565b6000828152600260208181526040808420928301805460ff60a01b191690556003909201543384526004909152908220805491929091610f0f908490611891565b909155505060008281526002602090815260408083206003015433845260059092528220805491929091610f449084906118aa565b9091555050336000908152600660205260408120805491610f64836116ce565b9190505550336001600160a01b0316827f372db0752d0b9495fde9d536192d20a601f6253a6788d182fcca571cab166d5883426040516109b292919061186f565b82610fe85760405162461bcd60e51b8152602060048201526013602482015272125b9d985b1a59081b595c9adb19481c9bdbdd606a1b6044820152606401610449565b60008481526002602081905260409091200154600160a01b900460ff16156110495760405162461bcd60e51b8152602060048201526014602482015273426174636820616c72656164792065786973747360601b6044820152606401610449565b6040805160c081018252848152426020808301918252338385019081526001606085018181526080860188815260a087018a815260008d81526002808852999020885181559651938701939093559251968501805491511515600160a01b026001600160a81b03199092166001600160a01b0398909816979097171790955551600383015592518051929391926110e692600485019201906112be565b5050336000908152600360205260408120805484935090919061110a9084906118aa565b9091555050336000908152600460205260408120805483929061112e9084906118aa565b909155505033600090815260066020526040812080549161114e836116ce565b9091555050604080518481526020810183905242818301529051339186917f42891709037bca0cf0d603331df44ba53fdc0cb03b9ce8882baf2391e16a153f9181900360600190a350505050565b6000828152600160205260409020546111ef5760405162461bcd60e51b815260206004820152601560248201527410d95c9d1a599a58d85d19481b9bdd08199bdd5b99605a1b6044820152606401610449565b6000828152600160205260409020600201546001600160a01b031633146112285760405162461bcd60e51b815260040161044990611830565b600082815260016020526040902060020154600160a01b900460ff16156112835760405162461bcd60e51b815260206004820152600f60248201526e105b1c9958591e481c995d9bdad959608a1b6044820152606401610449565b6000828152600160209081526040808320600201805460ff60a01b1916600160a01b17905533835260049091528120805491610af183611858565b8280548282559060005260206000209081019282156112f9579160200282015b828111156112f95782518255916020019190600101906112de565b50611305929150611309565b5090565b5b80821115611305576000815560010161130a565b60006020828403121561133057600080fd5b81356001600160a01b038116811461134757600080fd5b9392505050565b634e487b7160e01b600052604160045260246000fd5b604051601f8201601f1916810167ffffffffffffffff8111828210171561138d5761138d61134e565b604052919050565b600082601f8301126113a657600080fd5b8135602067ffffffffffffffff8211156113c2576113c261134e565b8160051b6113d1828201611364565b92835284810182019282810190878511156113eb57600080fd5b83870192505b8483101561140a578235825291830191908301906113f1565b979650505050505050565b60008060006060848603121561142a57600080fd5b83359250602084013567ffffffffffffffff81111561144857600080fd5b61145486828701611395565b925050604084013590509250925092565b600082601f83011261147657600080fd5b813567ffffffffffffffff8111156114905761149061134e565b6114a3601f8201601f1916602001611364565b8181528460208386010111156114b857600080fd5b816020850160208301376000918101602001919091529392505050565b6000806000606084860312156114ea57600080fd5b8335925060208401359150604084013567ffffffffffffffff81111561150f57600080fd5b61151b86828701611465565b9150509250925092565b6000806040838503121561153857600080fd5b82359150602083013567ffffffffffffffff81111561155657600080fd5b61156285828601611465565b9150509250929050565b60006020828403121561157e57600080fd5b5035919050565b6000815180845260005b818110156115ab5760208185018101518683018201520161158f565b506000602082860101526020601f19601f83011685010191505092915050565b86815285602082015260018060a01b0385166040820152831515606082015260c06080820152600061160060c0830185611585565b90508260a0830152979650505050505050565b8515158152841515602082015260018060a01b038416604082015282606082015260a06080820152600061140a60a0830184611585565b6000806000806080858703121561166057600080fd5b8435935060208501359250604085013567ffffffffffffffff81111561168557600080fd5b61169187828801611395565b949793965093946060013593505050565b634e487b7160e01b600052603260045260246000fd5b634e487b7160e01b600052601160045260246000fd5b6000600182016116e0576116e06116b8565b5060010190565b600181811c908216806116fb57607f821691505b60208210810361171b57634e487b7160e01b600052602260045260246000fd5b50919050565b601f82111561176b57600081815260208120601f850160051c810160208610156117485750805b601f850160051c820191505b8181101561176757828155600101611754565b5050505b505050565b815167ffffffffffffffff81111561178a5761178a61134e565b61179e8161179884546116e7565b84611721565b602080601f8311600181146117d357600084156117bb5750858301515b600019600386901b1c1916600185901b178555611767565b600085815260208120601f198616915b82811015611802578886015182559484019460019091019084016117e3565b50858210156118205787850151600019600388901b60f8161c191681555b5050505050600190811b01905550565b6020808252600e908201526d139bdd08185d5d1a1bdc9a5e995960921b604082015260600190565b600081611867576118676116b8565b506000190190565b6040815260006118826040830185611585565b90508260208301529392505050565b818103818111156118a4576118a46116b8565b92915050565b808201808211156118a4576118a46116b856fea2646970667358221220b12e3eab541ea247cbfe1bf400cd5175e47d56fe0acee483cd4f9a96e8d9132d64736f6c63430008130033",
  "linkReferences": {},
  "deployedLinkReferences": {}
}