{
  "_format": "hh-sol-artifact-1",
  "contractName": "CertificateRegistry",
  "sourceName": "contracts/CertificateRegistry.sol",
  "abi": [
    {
      "inputs": [],
      "stateMutability": "nonpayable",
      "type": "constructor"
    },
    {
      "anonymous": false,
      "inputs": [
        {
          "indexed": true,
          "internalType": "bytes32",
          "name": "certificateHash",
          "type": "bytes32"
        },
        {
          "indexed": false,
          "internalType": "string",
          "name": "reason",
          "type": "string"
        },
        {
          "indexed": true,
          "internalType": "address",
          "name": "revokedBy",
          "type": "address"
        },
        {
          "indexed": false,
          "internalType": "uint256",
          "name": "timestamp",
          "type": "uint256"
        },
        {
          "indexed": false,
          "internalType": "string",
          "name": "batchId",
          "type": "string"
        }
      ],
      "name": "BatchCertificateRevoked",
      "type": "event"
    },
    {
      "anonymous": false,
      "inputs": [
        {
          "indexed": true,
          "internalType": "bytes32",
          "name": "merkleRoot",
          "type": "bytes32"
        },
        {
          "indexed": true,
          "internalType": "address",
          "name": "issuer",
          "type": "address"
        },
        {
          "indexed": false,
          "internalType": "string",
          "name": "reason",
          "type": "string"
        },
        {
          "indexed": false,
          "internalType": "uint256",
          "name": "timestamp",
          "type": "uint256"
        }
      ],
      "name": "BatchRevoked",
      "type": "event"
    },
    {
      "anonymous": false,
      "inputs": [
        {
          "indexed": true,
          "internalType": "bytes32",
          "name": "hash",
          "type": "bytes32"
        },
        {
          "indexed": true,
          "internalType": "address",
          "name": "issuer",
          "type": "address"
        },
        {
          "indexed": false,
          "internalType": "string",
          "name": "reason",
          "type": "string"
        },
        {
          "indexed": false,
          "internalType": "uint256",
          "name": "timestamp",
          "type": "uint256"
        }
      ],
      "name": "CertificateRevoked",
      "type": "event"
    },
    {
      "anonymous": false,
      "inputs": [
        {
          "indexed": true,
          "internalType": "bytes32",
          "name": "hash",
          "type": "bytes32"
        },
        {
          "indexed": true,
          "internalType": "address",
          "name": "issuer",
          "type": "address"
        },
        {
          "indexed": false,
          "internalType": "uint256",
          "name": "timestamp",
          "type": "uint256"
        },
        {
          "indexed": false,
          "internalType": "uint256",
          "name": "blockNumber",
          "type": "uint256"
        }
      ],
      "name": "CertificateStored",
      "type": "event"
    },
    {
      "anonymous": false,
      "inputs": [
        {
          "indexed": true,
          "internalType": "uint256",
          "name": "batchId",
          "type": "uint256"
        },
        {
          "indexed": true,
          "internalType": "bytes32",
          "name": "merkleRoot",
          "type": "bytes32"
        },
        {
          "indexed": true,
          "internalType": "address",
          "name": "issuer",
          "type": "address"
        },
        {
          "indexed": false,
          "internalType": "uint256",
          "name": "certificateCount",
          "type": "uint256"
        },
        {
          "indexed": false,
          "internalType": "uint256",
          "name": "timestamp",
          "type": "uint256"
        }
      ],
      "name": "MerkleBatchStored",
      "type": "event"
    },
    {
      "inputs": [],
      "name": "batchIdCounter",
      "outputs": [
        {
          "internalType": "uint256",
          "name": "",
          "type": "uint256"
        }
      ],
      "stateMutability": "view",
      "type": "function"
    },
    {
      "inputs": [
        {
          "internalType": "bytes32",
          "name": "",
          "type": "bytes32"
        }
      ],
      "name": "certificates",
      "outputs": [
        {
          "internalType": "bytes32",
          "name": "hash",
          "type": "bytes32"
        },
        {
          "internalType": "uint256",
          "name": "timestamp",
          "type": "uint256"
        },
        {
          "internalType": "address",
          "name": "issuer",
          "type": "address"
        },
        {
          "internalType": "bool",
          "name": "isRevoked",
          "type": "bool"
        },
        {
          "internalType": "string",
          "name": "revocationReason",
          "type": "string"
        },
        {
          "internalType": "uint256",
          "name": "blockNumber",
          "type": "uint256"
        }
      ],
      "stateMutability": "view",
      "type": "function"
    },
    {
      "inputs": [
        {
          "internalType": "bytes32",
          "name": "_merkleRoot",
          "type": "bytes32"
        }
      ],
      "name": "getBatchInfo",
      "outputs": [
        {
          "internalType": "bytes32",
          "name": "merkleRoot",
          "type": "bytes32"
        },
        {
          "internalType": "string",
          "name": "metadata",
          "type": "string"
        },
        {
          "internalType": "uint256",
          "name": "certificateCount",
          "type": "uint256"
        },
        {
          "internalType": "uint256",
          "name": "timestamp",
          "type": "uint256"
        },
        {
          "internalType": "address",
          "name": "issuer",
          "type": "address"
        },
        {
          "internalType": "bool",
          "name": "isValid",
          "type": "bool"
        }
      ],
      "stateMutability": "view",
      "type": "function"
    },
    {
      "inputs": [],
      "name": "getCertificateCount",
      "outputs": [
        {
          "internalType": "uint256",
          "name": "",
          "type": "uint256"
        }
      ],
      "stateMutability": "view",
      "type": "function"
    },
    {
      "inputs": [
        {
          "internalType": "address",
          "name": "_issuer",
          "type": "address"
        }
      ],
      "name": "getIssuerStats",
      "outputs": [
        {
          "internalType": "uint256",
          "name": "totalCertificates",
          "type": "uint256"
        },
        {
          "internalType": "uint256",
          "name": "activeCertificates",
          "type": "uint256"
        },
        {
          "internalType": "uint256",
          "name": "revokedCertificates",
          "type": "uint256"
        },
        {
          "internalType": "uint256",
          "name": "totalTransactions",
          "type": "uint256"
        },
        {
          "internalType": "uint256",
          "name": "totalBatches",
          "type": "uint256"
        }
      ],
      "stateMutability": "view",
      "type": "function"
    },
    {
      "inputs": [
        {
          "internalType": "address",
          "name": "",
          "type": "address"
        }
      ],
      "name": "issuerActiveCertificates",
      "outputs": [
        {
          "internalType": "uint256",
          "name": "",
          "type": "uint256"
        }
      ],
      "stateMutability": "view",
      "type": "function"
    },
    {
      "inputs": [
        {
          "internalType": "address",
          "name": "",
          "type": "address"
        }
      ],
      "name": "issuerRevokedCertificates",
      "outputs": [
        {
          "internalType": "uint256",
          "name": "",
          "type": "uint256"
        }
      ],
      "stateMutability": "view",
      "type": "function"
    },
    {
      "inputs": [
        {
          "internalType": "address",
          "name": "",
          "type": "address"
        }
      ],
      "name": "issuerTotalBatches",
      "outputs": [
        {
          "internalType": "uint256",
          "name": "",
          "type": "uint256"
        }
      ],
      "stateMutability": "view",
      "type": "function"
    },
    {
      "inputs": [
        {
          "internalType": "address",
          "name": "",
          "type": "address"
        }
      ],
      "name": "issuerTotalCertificates",
      "outputs": [
        {
          "internalType": "uint256",
          "name": "",
          "type": "uint256"
        }
      ],
      "stateMutability": "view",
      "type": "function"
    },
    {
      "inputs": [
        {
          "internalType": "address",
          "name": "",
          "type": "address"
        }
      ],
      "name": "issuerTotalTransactions",
      "outputs": [
        {
          "internalType": "uint256",
          "name": "",
          "type": "uint256"
        }
      ],
      "stateMutability": "view",
      "type": "function"
    },
    {
      "inputs": [
        {
          "internalType": "bytes32",
          "name": "_certificateHash",
          "type": "bytes32"
        },
        {
          "internalType": "string",
          "name": "_reason",
          "type": "string"
        },
        {
          "internalType": "string",
          "name": "_batchId",
          "type": "string"
        }
      ],
      "name": "logCertificateRevocation",
      "outputs": [],
      "stateMutability": "nonpayable",
      "type": "function"
    },
    {
      "inputs": [
        {
          "internalType": "bytes32",
          "name": "",
          "type": "bytes32"
        }
      ],
      "name": "merkleBatchExists",
      "outputs": [
        {
          "internalType": "bool",
          "name": "",
          "type": "bool"
        }
      ],
      "stateMutability": "view",
      "type": "function"
    },
    {
      "inputs": [
        {
          "internalType": "bytes32",
          "name": "",
          "type": "bytes32"
        }
      ],
      "name": "merkleBatches",
      "outputs": [
        {
          "internalType": "bytes32",
          "name": "merkleRoot",
          "type": "bytes32"
        },
        {
          "internalType": "string",
          "name": "metadata",
          "type": "string"
        },
        {
          "internalType": "uint256",
          "name": "certificateCount",
          "type": "uint256"
        },
        {
          "internalType": "uint256",
          "name": "timestamp",
          "type": "uint256"
        },
        {
          "internalType": "address",
          "name": "issuer",
          "type": "address"
        },
        {
          "internalType": "bool",
          "name": "isValid",
          "type": "bool"
        }
      ],
      "stateMutability": "view",
      "type": "function"
    },
    {
      "inputs": [
        {
          "internalType": "bytes32",
          "name": "_hash",
          "type": "bytes32"
        },
        {
          "internalType": "string",
          "name": "_reason",
          "type": "string"
        }
      ],
      "name": "revokeCertificate",
      "outputs": [],
      "stateMutability": "nonpayable",
      "type": "function"
    },
    {
      "inputs": [
        {
          "internalType": "bytes32",
          "name": "_merkleRoot",
          "type": "bytes32"
        },
        {
          "internalType": "string",
          "name": "_reason",
          "type": "string"
        }
      ],
      "name": "revokeMerkleBatch",
      "outputs": [],
      "stateMutability": "nonpayable",
      "type": "function"
    },
    {
      "inputs": [
        {
          "internalType": "bytes32",
          "name": "_hash",
          "type": "bytes32"
        },
        {
          "internalType": "string",
          "name": "_metadata",
          "type": "string"
        }
      ],
      "name": "storeCertificate",
      "outputs": [],
      "stateMutability": "nonpayable",
      "type": "function"
    },
    {
      "inputs": [
        {
          "internalType": "bytes32",
          "name": "_merkleRoot",
          "type": "bytes32"
        },
        {
          "internalType": "string",
          "name": "_metadata",
          "type": "string"
        },
        {
          "internalType": "uint256",
          "name": "_certificateCount",
          "type": "uint256"
        }
      ],
      "name": "storeMerkleBatch",
      "outputs": [
        {
          "internalType": "uint256",
          "name": "batchId",
          "type": "uint256"
        }
      ],
      "stateMutability": "nonpayable",
      "type": "function"
    },
    {
      "inputs": [
        {
          "internalType": "bytes32",
          "name": "_hash",
          "type": "bytes32"
        }
      ],
      "name": "verifyCertificate",
      "outputs": [
        {
          "internalType": "bool",
          "name": "exists",
          "type": "bool"
        },
        {
          "internalType": "bool",
          "name": "isRevoked",
          "type": "bool"
        },
        {
          "internalType": "address",
          "name": "issuer",
          "type": "address"
        },
        {
          "internalType": "uint256",
          "name": "timestamp",
          "type": "uint256"
        },
        {
          "internalType": "string",
          "name": "revocationReason",
          "type": "string"
        }
      ],
      "stateMutability": "view",
      "type": "function"
    },
    {
      "inputs": [
        {
          "internalType": "bytes32",
          "name": "_merkleRoot",
          "type": "bytes32"
        }
      ],
      "name": "verifyMerkleBatch",
      "outputs": [
        {
          "internalType": "bool",
          "name": "exists",
          "type": "bool"
        },
        {
          "internalType": "bool",
          "name": "isValid",
          "type": "bool"
        },
        {
          "internalType": "address",
          "name": "issuer",
          "type": "address"
        },
        {
          "internalType": "uint256",
          "name": "certificateCount",
          "type": "uint256"
        },
        {
          "internalType": "uint256",
          "name": "timestamp",
          "type": "uint256"
        },
        {
          "internalType": "string",
          "name": "metadata",
          "type": "string"
        }
      ],
      "stateMutability": "view",
      "type": "function"
    },
    {
      "inputs": [
        {
          "internalType": "bytes32",
          "name": "_leaf",
          "type": "bytes32"
        },
        {
          "internalType": "bytes32[]",
          "name": "_proof",
          "type": "bytes32[]"
        },
        {
          "internalType": "bytes32",
          "name": "_merkleRoot",
          "type": "bytes32"
        }
      ],
      "name": "verifyMerkleProof",
      "outputs": [
        {
          "internalType": "bool",
          "name": "",
          "type": "bool"
        }
      ],
      "stateMutability": "view",
      "type": "function"
    }
  ],
  "bytecode": "0x608060405234801561001057600080fd5b506000600855611bf2806100256000396000f3fe608060405234801561001057600080fd5b506004361061012c5760003560e01c80635bf4adfb116100ad5780638809f727116100715780638809f727146102ff57806393068d4414610314578063ab598c9a14610327578063ab6edcf114610347578063e09bf5521461036757600080fd5b80635bf4adfb14610287578063742f06881461029a578063753207c7146102bf57806378bede29146102d2578063850c1768146102db57600080fd5b806335f0dced116100f457806335f0dced146101d15780633d5732f5146101f45780633efbf5031461021457806340ab7a541461024f5780635a73c6941461027457600080fd5b80631618a7fd1461013157806316afe0401461015757806322a561d81461016c5780632fa9d7db1461018c57806333c64561146101ac575b600080fd5b61014461013f366004611602565b61038a565b6040519081526020015b60405180910390f35b61016a610165366004611652565b61062c565b005b61014461017a3660046116bf565b60066020526000908152604090205481565b61014461019a3660046116bf565b60056020526000908152604090205481565b6101bf6101ba3660046116ef565b6106f6565b60405161014e9695949392919061174e565b6101e46101df366004611797565b6107c3565b604051901515815260200161014e565b6101446102023660046116bf565b60046020526000908152604090205481565b6102276102223660046116bf565b610a25565b604080519586526020860194909452928401919091526060830152608082015260a00161014e565b61026261025d3660046116ef565b610a71565b60405161014e96959493929190611851565b61016a61028236600461189a565b610bfc565b61016a61029536600461189a565b610e46565b6102ad6102a83660046116ef565b61101b565b60405161014e969594939291906118e1565b6101bf6102cd3660046116ef565b6110ea565b61014460085481565b6102ee6102e93660046116ef565b61124c565b60405161014e959493929190611929565b33600090815260036020526040902054610144565b61016a61032236600461189a565b61139f565b6101446103353660046116bf565b60036020526000908152604090205481565b6101446103553660046116bf565b60076020526000908152604090205481565b6101e46103753660046116ef565b60026020526000908152604090205460ff1681565b6000836103d45760405162461bcd60e51b8152602060048201526013602482015272125b9d985b1a59081b595c9adb19481c9bdbdd606a1b60448201526064015b60405180910390fd5b6000821161042e5760405162461bcd60e51b815260206004820152602160248201527f4174206c65617374206f6e6520636572746966696361746520726571756972656044820152601960fa1b60648201526084016103cb565b60008481526002602052604090205460ff16156104845760405162461bcd60e51b8152602060048201526014602482015273426174636820616c72656164792065786973747360601b60448201526064016103cb565b6008805490600061049483611981565b90915550506008546040805160c0810182528681526020808201878152828401879052426060840152336080840152600160a0840181905260008a81529281905293909120825181559051939450909290918201906104f39082611a23565b50604082810151600280840191909155606084015160038085019190915560808501516004909401805460a0909601511515600160a01b026001600160a81b03199096166001600160a01b03909516949094179490941790925560008781526020928352818120805460ff19166001179055338152929091528120805484929061057e908490611ae3565b909155505033600090815260046020526040812080548492906105a2908490611ae3565b90915550503360009081526006602052604081208054916105c283611981565b90915550503360009081526007602052604081208054916105e283611981565b9091555050604080518381524260208201523391869184917f42891709037bca0cf0d603331df44ba53fdc0cb03b9ce8882baf2391e16a153f910160405180910390a49392505050565b826106685760405162461bcd60e51b815260206004820152600c60248201526b092dcecc2d8d2c840d0c2e6d60a31b60448201526064016103cb565b60008251116106ab5760405162461bcd60e51b815260206004820152600f60248201526e1499585cdbdb881c995c5d5a5c9959608a1b60448201526064016103cb565b336001600160a01b0316837f046ba988e52654ca19af218a97d3504f3e2baa8e56600f7b83ea751a0e28c36c8442856040516106e993929190611afc565b60405180910390a3505050565b6001602081905260009182526040909120805491810180546107179061199a565b80601f01602080910402602001604051908101604052809291908181526020018280546107439061199a565b80156107905780601f1061076557610100808354040283529160200191610790565b820191906000526020600020905b81548152906001019060200180831161077357829003601f168201915b5050505060028301546003840154600490940154929390929091506001600160a01b03811690600160a01b900460ff1686565b60008181526002602052604081205460ff166107f15760405162461bcd60e51b81526004016103cb90611b31565b600082815260016020526040902060040154600160a01b900460ff166108495760405162461bcd60e51b815260206004820152600d60248201526c10985d18da081c995d9bdad959609a1b60448201526064016103cb565b6000828152600160208181526040808420815160c0810190925280548252928301805491939284019161087b9061199a565b80601f01602080910402602001604051908101604052809291908181526020018280546108a79061199a565b80156108f45780601f106108c9576101008083540402835291602001916108f4565b820191906000526020600020905b8154815290600101906020018083116108d757829003601f168201915b505050918352505060028201546020820152600382015460408201526004909101546001600160a01b0381166060830152600160a01b900460ff16151560809091015290508460005b8551811015610a19578186828151811061095957610959611b5a565b602002602001015110156109b95785818151811061097957610979611b5a565b60200260200101518260405160200161099c929190918252602082015260400190565b604051602081830303815290604052805190602001209150610a07565b818682815181106109cc576109cc611b5a565b60200260200101516040516020016109ee929190918252602082015260400190565b6040516020818303038152906040528051906020012091505b80610a1181611981565b91505061093d565b50905114949350505050565b6001600160a01b03811660009081526003602090815260408083205460048352818420546005845282852054600685528386205460079095529290942054909392905b91939590929450565b600081815260026020526040812054819081908190819060609060ff16610ab65750506040805160208101909152600080825294508493508392508291508190610bf3565b6000878152600160208181526040808420815160c08101909252805482529283018054919392840191610ae89061199a565b80601f0160208091040260200160405190810160405280929190818152602001828054610b149061199a565b8015610b615780601f10610b3657610100808354040283529160200191610b61565b820191906000526020600020905b815481529060010190602001808311610b4457829003601f168201915b5050505050815260200160028201548152602001600382015481526020016004820160009054906101000a90046001600160a01b03166001600160a01b03166001600160a01b031681526020016004820160149054906101000a900460ff161515151581525050905060018160a001518260800151836040015184606001518560200151965096509650965096509650505b91939550919395565b81610c385760405162461bcd60e51b815260206004820152600c60248201526b092dcecc2d8d2c840d0c2e6d60a31b60448201526064016103cb565b600082815260208190526040902060020154600160a01b900460ff1615610ca15760405162461bcd60e51b815260206004820152601b60248201527f436572746966696361746520616c7265616479207265766f6b6564000000000060448201526064016103cb565b60008281526020819052604090205415610cfd5760405162461bcd60e51b815260206004820152601a60248201527f436572746966696361746520616c72656164792065786973747300000000000060448201526064016103cb565b6040805160c0810182528381524260208083019182523383850190815260006060850181815286518085018852828152608087019081524360a08801528983529382905295902084518155925160018401555160028301805495511515600160a01b026001600160a81b03199096166001600160a01b0392909216919091179490941790935591519091906003820190610d979082611a23565b5060a09190910151600490910155336000908152600360205260408120805491610dc083611981565b9091555050336000908152600460205260408120805491610de083611981565b9091555050336000908152600660205260408120805491610e0083611981565b909155505060408051428152436020820152339184917f21b7b16d38779d5a1404c9630a1654d0d8af6c9d01d01c2c48211ac953b1d71b91015b60405180910390a35050565b600082815260208190526040902054610e995760405162461bcd60e51b815260206004820152601560248201527410d95c9d1a599a58d85d19481b9bdd08199bdd5b99605a1b60448201526064016103cb565b6000828152602081905260409020600201546001600160a01b03163314610ef35760405162461bcd60e51b815260206004820152600e60248201526d139bdd08185d5d1a1bdc9a5e995960921b60448201526064016103cb565b600082815260208190526040902060020154600160a01b900460ff1615610f4e5760405162461bcd60e51b815260206004820152600f60248201526e105b1c9958591e481c995d9bdad959608a1b60448201526064016103cb565b600082815260208190526040902060028101805460ff60a01b1916600160a01b179055600301610f7e8282611a23565b50336000908152600460205260408120805491610f9a83611b70565b9091555050336000908152600560205260408120805491610fba83611981565b9091555050336000908152600660205260408120805491610fda83611981565b9190505550336001600160a01b0316827fba6b1f45b9140a00c5c5541e536fa1e9aff39c507267e24a5dfba0074f15aaca8342604051610e3a929190611b87565b6000602081905290815260409020805460018201546002830154600384018054939492936001600160a01b03831693600160a01b90930460ff169291906110619061199a565b80601f016020809104026020016040519081016040528092919081815260200182805461108d9061199a565b80156110da5780601f106110af576101008083540402835291602001916110da565b820191906000526020600020905b8154815290600101906020018083116110bd57829003601f168201915b5050505050908060040154905086565b600081815260026020526040812054606090829081908190819060ff166111235760405162461bcd60e51b81526004016103cb90611b31565b6000878152600160208181526040808420815160c081019092528054825292830180549193928401916111559061199a565b80601f01602080910402602001604051908101604052809291908181526020018280546111819061199a565b80156111ce5780601f106111a3576101008083540402835291602001916111ce565b820191906000526020600020905b8154815290600101906020018083116111b157829003601f168201915b5050509183525050600282015460208083019190915260038301546040808401919091526004909301546001600160a01b038116606080850191909152600160a01b90910460ff16151560809384015284519185015193850151908501519285015160a090950151919d939c509a5090985091965090945092505050565b600081815260208181526040808320815160c0810183528154815260018201549381019390935260028101546001600160a01b03811692840192909252600160a01b90910460ff1615156060808401919091526003820180548594859485949385936080840191906112bd9061199a565b80601f01602080910402602001604051908101604052809291908181526020018280546112e99061199a565b80156113365780601f1061130b57610100808354040283529160200191611336565b820191906000526020600020905b81548152906001019060200180831161131957829003601f168201915b5050509183525050600491909101546020909101528051909150611376575050604080516020810190915260008082529450849350839250829150610a68565b60608101516040820151602083015160809093015160019a929950909750919550909350915050565b60008281526002602052604090205460ff166113cd5760405162461bcd60e51b81526004016103cb90611b31565b6000828152600160205260409020600401546001600160a01b031633146114275760405162461bcd60e51b815260206004820152600e60248201526d139bdd08185d5d1a1bdc9a5e995960921b60448201526064016103cb565b600082815260016020526040902060040154600160a01b900460ff166114875760405162461bcd60e51b815260206004820152601560248201527410985d18da08185b1c9958591e481c995d9bdad959605a1b60448201526064016103cb565b60008281526001602090815260408083206004808201805460ff60a01b19169055600290910154338552925282208054919283926114c6908490611ba9565b909155505033600090815260056020526040812080548392906114ea908490611ae3565b909155505033600090815260066020526040812080549161150a83611981565b9190505550336001600160a01b0316837fcefd04eb30fc67915c86ed18e3aff86efbf8f4b10d3471ad65550aa00481eec784426040516106e9929190611b87565b634e487b7160e01b600052604160045260246000fd5b604051601f8201601f1916810167ffffffffffffffff8111828210171561158a5761158a61154b565b604052919050565b600082601f8301126115a357600080fd5b813567ffffffffffffffff8111156115bd576115bd61154b565b6115d0601f8201601f1916602001611561565b8181528460208386010111156115e557600080fd5b816020850160208301376000918101602001919091529392505050565b60008060006060848603121561161757600080fd5b83359250602084013567ffffffffffffffff81111561163557600080fd5b61164186828701611592565b925050604084013590509250925092565b60008060006060848603121561166757600080fd5b83359250602084013567ffffffffffffffff8082111561168657600080fd5b61169287838801611592565b935060408601359150808211156116a857600080fd5b506116b586828701611592565b9150509250925092565b6000602082840312156116d157600080fd5b81356001600160a01b03811681146116e857600080fd5b9392505050565b60006020828403121561170157600080fd5b5035919050565b6000815180845260005b8181101561172e57602081850181015186830182015201611712565b506000602082860101526020601f19601f83011685010191505092915050565b86815260c06020820152600061176760c0830188611708565b60408301969096525060608101939093526001600160a01b03919091166080830152151560a09091015292915050565b6000806000606084860312156117ac57600080fd5b8335925060208085013567ffffffffffffffff808211156117cc57600080fd5b818701915087601f8301126117e057600080fd5b8135818111156117f2576117f261154b565b8060051b9150611803848301611561565b818152918301840191848101908a84111561181d57600080fd5b938501935b8385101561183b57843582529385019390850190611822565b979a979950505050604095909501359450505050565b8615158152851515602082015260018060a01b038516604082015283606082015282608082015260c060a0820152600061188e60c0830184611708565b98975050505050505050565b600080604083850312156118ad57600080fd5b82359150602083013567ffffffffffffffff8111156118cb57600080fd5b6118d785828601611592565b9150509250929050565b86815285602082015260018060a01b0385166040820152831515606082015260c06080820152600061191660c0830185611708565b90508260a0830152979650505050505050565b8515158152841515602082015260018060a01b038416604082015282606082015260a06080820152600061196060a0830184611708565b979650505050505050565b634e487b7160e01b600052601160045260246000fd5b6000600182016119935761199361196b565b5060010190565b600181811c908216806119ae57607f821691505b6020821081036119ce57634e487b7160e01b600052602260045260246000fd5b50919050565b601f821115611a1e57600081815260208120601f850160051c810160208610156119fb5750805b601f850160051c820191505b81811015611a1a57828155600101611a07565b5050505b505050565b815167ffffffffffffffff811115611a3d57611a3d61154b565b611a5181611a4b845461199a565b846119d4565b602080601f831160018114611a865760008415611a6e5750858301515b600019600386901b1c1916600185901b178555611a1a565b600085815260208120601f198616915b82811015611ab557888601518255948401946001909101908401611a96565b5085821015611ad35787850151600019600388901b60f8161c191681555b5050505050600190811b01905550565b80820180821115611af657611af661196b565b92915050565b606081526000611b0f6060830186611708565b8460208401528281036040840152611b278185611708565b9695505050505050565b6020808252600f908201526e10985d18da081b9bdd08199bdd5b99608a1b604082015260600190565b634e487b7160e01b600052603260045260246000fd5b600081611b7f57611b7f61196b565b506000190190565b604081526000611b9a6040830185611708565b90508260208301529392505050565b81810381811115611af657611af661196b56fea26469706673582212203aa3991bad5b12631b1e9228d3ea2b1cee43a30eb7472e2e120a4c853ec1d9ed64736f6c63430008130033",
  "linkReferences": {},
  "deployedLinkReferences": {}
}